:0400000091EF7FF00D
:10FF1C00000E956E12000001ACEF7FF0010EB5ECF7
:10FF2C007FF01200D388D38AD38C1200016EFA0EA4
:10FF3C0000F0E82EFDD7012EFAD71200016E030E49
:10FF4C00E82EFED700F0012EFAD7120098EC7FF0C5
:10FF5C008EEC7FF0C5EC7FF094EC7FF0FFD7026E57
:10FF6C00000E8C6E02508C128D948D908D8200F050
:10FF7C0000F000F08D920A0E9CEC7FF012001E0E29
:10FF8C009CEC7FF0000E8C6E8D948D908D92000EFB
:10FF9C00956E969496909692000E8C6E380E8C12EE
:10FFAC008D8200F000F000F08D920A0E9CEC7FF038
:10FFBC00000E8C6E380E8C128D8200F000F000F06A
:10FFCC008D92280EA4EC7FF0000E8C6E380E8C12E5
:10FFDC008D8200F000F000F08D92280EA4EC7FF0E2
:10FFEC00380EB5EC7FF00C0EB5EC7FF0060EB5ECD0
:04FFFC007FF0120080
:020000040020DA
:08000000FFFFFFFFFFFFFFFF00
:020000040030CA
:0E000000FF08191EFF8181FF0FC00FE00F40A7
:00000001FF
